:100000000C940C0B0C94290B0C94290B0C94192EAA
:100010000C94290B0C94290B0C94290B0C94290B90
:100020000C94290B0C94290B0C94290B0C94290B80
:100030000C94290B0C94290B0C94290B0C94290B70
:100040000C94290B0C94290B0C94290B0C94290B60
:100050000C94290B0C94290B0C94290B0C94290B50
:100060000C94442E0C94290B0000000000000000AA
:100070000000000000000000000000080808080858
:10008000080800001818000000486C241200000046
:1000900000000000000000000000002424247F1263
:1000A00012127F12121200000000081C2A2A0A0CE9
:1000B0001828282A2A1C08080000002225151515D2
:1000C0002A585454542200000000000C1212120A44
:1000D00076252911916E0000000606040300000039
:1000E0000000000000000000004020101008080878
:1000F0000808081010204000000204080810101022
:1001000010101008080402000000000008086B1C12
:100110001C6B080800000000000000000808080828
:100120007F08080808000000000000000000000030
:1001300000000000060604030000000000000000AC
:10014000FE000000000000000000000000000000B1
:100150000000000006060000000080404020201043
:100160001008080404020200000000182442424261
:100170004242424224180000000000080E0808080D
:1001800008080808083E00000000003C42424220E7
:1001900020100804427E00000000003C424220186B
:1001A00020404042221C000000000020302824246F
:1001B00022227E20207800000000007E0202021A27
:1001C00026404042221C0000000000382402021A8F
:1001D00026424242241800000000007E2222101015
:1001E00008080808080800000000003C42424224B9
:1001F00018244242423C00000000001824424242BF
:1002000064584040241C0000000000000000181842
:1002100000000000181800000000000000000008A6
:10022000000000000008080400000040201008043E
:1002300002040810204000000000000000007F00C1
:1002400000007F00000000000000000204081020F1
:1002500040201008040200000000003C42424640DA
:1002600020101000181800000000001C225A5555DC
:1002700055552D42221C00000000000808181414D7
:10028000243C224242E700000000001F2222221EDE
:1002900022424242221F00000000007C4242010133
:1002A00001010142221C00000000001F22424242C4
:1002B00042424242221F00000000003F4212121E32
:1002C00012120242423F00000000003F4212121E82
:1002D00012120202020700000000003C222201016B
:1002E00001712122221C0000000000E7424242422C
:1002F0007E42424242E700000000003E0808080833
:1003000008080808083E00000000007C10101010CB
:10031000101010101010110F0000007722120A0E9A
:100320000A121222227700000000000702020202D5
:1003300002020202427F00000000007736363636A5
:100340002A2A2A2A2A6B0000000000E346464A4A6D
:1003500052525262624700000000001C224141419B
:1003600041414141221C00000000003F4242424204
:100370003E020202020700000000001C224141412F
:1003800041414D53321C60000000003F4242423E5A
:100390001212222242C700000000007C42420204E6
:1003A00018204042423E00000000007F4908080833
:1003B00008080808081C0000000000E7424242420A
:1003C00042424242423C0000000000E742422224F6
:1003D00024141418080800000000006B494949491A
:1003E0005555362222220000000000E7422424183E
:1003F0001818242442E70000000000772222141479
:1004000008080808081C00000000007E21201010C9
:1004100008040442423F0000007808080808080861
:100420000808080808087800000002020404080808
:100430000810102020204040001E10101010101036
:100440001010101010101E000038440000000000B2
:10045000000000000000000000000000000000009C
:1004600000000000000000FF00060800000000007F
:100470000000000000000000000000000000003C40
:100480004278444242FC0000000000030202021ACB
:1004900026424242261A00000000000000000038F8
:1004A00044020202443800000000006040404078EE
:1004B0004442424264D80000000000000000003CBA
:1004C000427E0202423C0000000000F08808087EE4
:1004D00008080808083E0000000000000000007C3A
:1004E00022221C023C42423C000000030202023A6B
:1004F0004642424242E700000000000C0C00000EA1
:1005000008080808083E00000000003030000038ED
:10051000202020202020221E000000030202027260
:10052000120A1612227700000000000E08080808C0
:1005300008080808083E0000000000000000007FD6
:100540009292929292B70000000000000000003BDF
:100550004642424242E70000000000000000003C2A
:1005600042424242423C0000000000000000001BEA
:1005700026424242221E02070000000000000078CE
:1005800044424242447840E000000000000000770E
:100590004C040404041F0000000000000000007C64
:1005A00042023C40423E0000000000000008083EBD
:1005B0000808080808300000000000000000006380
:1005C0004242424262DC000000000000000000E7FE
:1005D000422424140808000000000000000000EB82
:1005E0004949555522220000000000000000007615
:1005F00024181818246E000000000000000000E716
:100600004224241418080807000000000000007E9F
:1006100022100808447E000000C020202020201066
:10062000202020202020C0001010101010101010CA
:1006300010101010101010100006080808080810FC
:1006400008080808080806000C32C2000000000074
:10065000000000000000000000000000000000009A
:10066000000000000000000000000000000000008A
:10067000000000000000000000000000000000007A
:10068000000000000000000000000000000000006A
:1006900000F83F07F83F07F83F07000000000000A0
:1006A000000000000000000000000000000000004A
:1006B00000000000007C00007C00007C00000000C6
:1006C000000000007C00007C00007C0000000000B6
:1006D0000000000000000000000060000063000057
:1006E000E30700FF07F07F00F0630000E30700FF6F
:1006F00007F07F00F06300006300000300000000CB
:10070000000000000000C00303E00706600606309A
:100710000C3E30FE1FF83F063C180630380360F0F0
:100720000300E001000000000000000000E0030CF6
:10073000F0070E30860730C603F0E700E07B0000CC
:10074000DC0700EF0F80630CE0610C70E00F30C03D
:100750000700000000000000F000F0FC01F88F032B
:100760009C07030C0F030C1D038CB903F8E0017008
:10077000F00100F803001C03000802000000000064
:10078000000000000000000000000000007C0000ED
:100790007C00007C00000000000000000000000061
:1007A0000000000000000000000000000000000049
:1007B0000080FF01E0FF0FF8001F3C003C0E0070BE
:1007C0000600600200400000000000000000000081
:1007D0000000000000000000000000000000020017
:1007E000400600600E00703C003CF8001FE0FF0770
:1007F00080FF010000000000000000000000000079
:100800000000100200380700300300E00100FE1F66
:1008100000FE1F00E0010030030038070010020056
:1008200000000000000000000000000000180000B0
:100830001800001800001800C0FF03C0FF030018D4
:100840000000180000180000180000000000000060
:100850000000000000000000000000300000300038
:10086000803900801F00801F00000700000000008A
:100870000000000000000000000000000000000078
:100880000000000018000018000018000018000008
:100890001800001800001800000000000000000010
:1008A0000000000000000000000000000000000048
:1008B0000000010080030080030000010000000030
:1008C0000000000000000000000000000000000028
:1008D0000000003000003C00000F00C00300F000EA
:1008E000003C00000F00C00300F000003C00000CC2
:1008F0000000000000000000000000803F00E0FF5A
:100900000070F001389803180C03180E0318060342
:10091000388303F0C101E0FF00803F0000000000C9
:100920000000000000000000200003700003300001
:1009300003180003F8FF03F8FF030000030000039F
:1009400000000300000000000000000000000000A4
:10095000000020000370800338C0031860031830C3
:1009600003181803380E03F00703E0030300000325
:10097000000000000000000000000000300003182C
:100980000003180603180603180603380703F08D42
:1009900001E0FC0100780000000000000000000001
:1009A000007000007800006E00806700C061007079
:1009B0006000386000F8FF03F8FF0300600000608B
:1009C00000006000000000000000000000000000C7
:1009D000F80703F807031806031806031806031898
:1009E0000603188E0118FC000078000000000000CB
:1009F00000000000000000000000007F00C0FF01B8
:100A0000608C013006033806031806031806031825
:100A10008E0118FC010078000000000000000000BA
:100A20000000000018000018000018000318C003A0
:100A300018F001183C00180F00D80300F800003827
:100A40000000000000000000000000000000E0F0D6
:100A500000F0F901389F03180F0318060318060366
:100A6000180F03389F03F0F901E0F00000000000C8
:100A70000000000000000000C00300F00703300E7B
:100A800003180C03180C03188C03188C0130E600B3
:100A9000F07F00C01F000000000000000000000008
:100AA000000000000000000000000080830380833D
:100AB000038083030000000000000000000000002D
:100AC0000000000000000000000000000000000026
:100AD000003000003080833980831F80831F000036
:100AE00007000000000000000000000000000000FF
:100AF000000000000000000800001C00003E000094
:100B0000360000630080C100C08001E08003400027
:100B100001000000000000000000000000000000D4
:100B200000660000660000660000660000660000C7
:100B300066000066000066000066000066000000B7
:100B400000000000000000000000400001E0800301
:100B5000C0800180C100006300003600003E00003C
:100B60001C00000800000000000000000000000061
:100B7000000000000000000C00000C80030C9E032D
:100B8000189E03180600F00700E0030000000000B4
:100B9000000000000000000000FC0380FF1FE003D5
:100BA0003870F87118FE630C0F630C03630CE3617B
:100BB0000CFF630C0763388033F0FF19C07F00001F
:100BC000000000000000C00300F803007F00E067A1
:100BD00000F06000386000F06000E06700007F0017
:100BE00000F80300C0030000000000000000000047
:100BF0000000F8FF03F8FF031806031806031806A1
:100C000003180603380703F08D01E0FC01007000B3
:100C1000000000000000000000803F00C0FF00E076
:100C2000E001308001388003180003180003180029
:100C300003180003180003308001000000000000CA
:100C4000000000F8FF03F8FF031800031800031862
:100C5000000318000318800330800170E001E0FFFA
:100C600000803F00000000000000000000000000C5
:100C7000F8FF03F8FF031806031806031806031805
:100C80000603180603180603000000000000000019
:100C900000000000000000000000F8FF03F8FF0360
:100CA0001806001806001806001806001806001896
:100CB000060000000000000000000000000000002E
:100CC00000003F00C0FF00E0E00130800138000379
:100CD00018000318060318060318060318FE03304D
:100CE000FE01000000000000000000F8FF03F8FF14
:100CF00003000600000600000600000600000600D3
:100D0000000600F8FF03F8FF0300000000000000E9
:100D10000000000000000000180003180003180085
:100D200003F8FF03F8FF031800031800031800037B
:100D300000000000000000000000000000000000B3
:100D400000001880011800031800031800031800A1
:100D500003188003F8FF01F8FF0000000000000006
:100D6000000000000000000000000000F8FF03F891
:100D7000FF03000400001F00803B00E0F00070C093
:100D8000013880030800020000000000000000009D
:100D9000000000000000000000F8FF03F8FF03005F
:100DA0000003000003000003000003000003000034
:100DB00003000000000000000000000000F8FF0336
:100DC000F8FF03780000C00300000F0000180000C7
:100DD0000F00C00300700000F8FF03F8FF030000DD
:100DE00000000000000000000000F8FF03F8FF030F
:100DF000380000E00100800700003C0000F0000027
:100E00008003F8FF03F8FF0300000000000000006B
:100E100000803F00E0FF0070C0013880031800032D
:100E200018000318000338800370C001E0FF008041
:100E30003F00000000000000000000000000F8FF7C
:100E400003F8FF03181800181800181800181800E5
:100E5000181800300C00F00700C00300000000006C
:100E60000000000000803F00E0FF0070C0013880FB
:100E70000318000F18001F18003B38803370C03172
:100E8000E0FF30803F180000180000000000000064
:100E90000000F8FF03F8FF03180C00180C00180CF2
:100EA00000181C00387600F0E701E0810300000222
:100EB000000000000000000000E08101F0030330AA
:100EC0000303180603180603180C03180C03189CD8
:100ED0000130F80100F000000000000000000000F8
:100EE000000000180000180000180000180000F8AA
:100EF000FF03F8FF03180000180000180000180096
:100F000000000000000000000000000000F8FF00EA
:100F1000F8FF01008003000003000003000003004D
:100F20000003008001F8FF01F87F000000000000CE
:100F300000000000000000380000F80300C01F009F
:100F400000FE0000E00300800300E00300FE00C09C
:100F50000F00F80100380000000000000000000051
:100F600000F83F00F8FF0300E00300F803007E00F4
:100F7000000F00007E0000F80300C003F8FF03F834
:100F80003F0000000000000000000208000318C03D
:100F90000378E000E07900C01F00000F00C01F00D0
:100FA000E0790078E00018C00308000300000200A8
:100FB0000000000000080000380000F00000C0033E
:100FC00000000F0000FC0300FC03000F00C0030042
:100FD000F0000038000008000000000000000018C9
:100FE000000318800318E003183803181C031807BF
:100FF00003980303F80003780003180003000003BC
:1010000000000000000000000000000000000000E0
:101010000000FCFF7FFCFF7F0C00600C00600C00F8
:10102000600C0060000000000000000000000000F4
:101030000000000C00003C0000F00000C0030000B5
:101040000F00003C0000F00000C00300000F000093
:101050003C00003000000000000000000000000024
:101060000000000C00600C00600C00600C0060FCD4
:10107000FF7FFCFF7F000000000000000000000078
:1010800000000000000000000000000300800300DA
:10109000E00000380000180000380000E000008088
:1010A000030000030000000000000000000000003A
:1010B00060000060000060000060000060000060F0
:1010C0000000600000600000600000600000600040
:1010D00000600000600000600000000000000000F0
:1010E000000400000C00001C00003800003000006C
:1010F00020000000000000000000000000000000D0
:10110000000000000000000000E00100F30380394F
:101110000380190380190380190380990100FF03DC
:1011200000FE0300000000000000000000000000BE
:101130000000FCFF01FCFF03000303000303800128
:101140000380010380010380830100FF00007E0013
:10115000000000000000000000000000007C000013
:10116000FE01008701808303800103800103800169
:101170000380010300830100000000000000000064
:1011800000000000FC0000FE0100830380010380DA
:10119000010380010380810180C101FCFF03FCFF8A
:1011A00003000000000000000000000000007C00C0
:1011B00000FF01009B01801903801903801903803F
:1011C0001903801B03001F03001E00000000000025
:1011D0000000000000000000030000030000030006
:1011E000000300F0FF03F8FF031C03000C03000CD6
:1011F00003000C00000000000000000000000000E0
:101200000000C01C00EE3F003F73803B63803163F1
:10121000803163803163803B63801F33800F3E8069
:10122000011E000000000000000000000000FCFFA4
:1012300003FCFF03000700000300800100800100A1
:1012400080030080FF0300FE030000000000000098
:101250000000000000000000800103800103800105
:10126000039C01039CFF039CFF0300000300000399
:10127000000003000000000000000000000000006B
:101280000000800130800160800160800160800189
:10129000609C01709CFF3F9CFF1F0000000000004D
:1012A000000000000000000000000000FCFF03FC44
:1012B000FF03001800003C0000760000E70080C338
:1012C0000180810380000300000200000000000094
:1012D0000000000000000C00030C00030C00030CD5
:1012E0000003FCFF03FCFF030000030000030000F9
:1012F00003000000000000000000000000000000EB
:1013000080FF0380FF0300030080010080FF0300D3
:10131000FF0300030080010080FF0300FF030000C3
:101320000000000000000000000080FF0380FF03B9
:10133000000700800300800100800100800300801E
:10134000FF0300FE0300000000000000000000009A
:1013500000007C0000FE0100830180010380010386
:1013600080010380010380810300830100FF0000EE
:101370007C0000000000000000000000000080FF72
:101380007F80FF7F0003038001038001038001034E
:1013900080830100FF01007E0000000000000000CB
:1013A000000000000000FC0000FE0100830380013B
:1013B0000380010380010380810180C10180FF7FE0
:1013C00080FF7F000000000000000000000000001F
:1013D000000080FF0380FF03000300000300800182
:1013E000008001008001008007000007000000006D
:1013F0000000000000000000000000000086010066
:101400000F03801903801903801103803103803199
:101410000300E30100E00000000000000000000005
:10142000000000800100800100800100F8FF00F84A
:10143000FF0180810380010380010380010380019B
:101440000300000000000000000000000000000099
:1014500080FF0080FF030080030000030000030002
:10146000800300C00180FF0380FF03000000000034
:1014700000000000000000800100800F00003E001E
:1014800000F80000C00300800300C00300F8000063
:101490003E00800F008001000000000000000000FE
:1014A0000080FF0000FF0300800300E003007800DD
:1014B000003C0000780000E00300800300FF038090
:1014C000FF0000000000000000000080000280011A
:1014D0000380830300CF01007C00003800007C0003
:1014E00000EE018083038001038000020000000001
:1014F0000000000060800160800F60003E7000F816
:101500003800C01F00000F00E00300FC00801F0037
:101510008003000000000000000000000000000048
:10152000000080010380810380C103806103803952
:1015300003800D0380070380030380010300000084
:101540000000000000000000000000000018000083
:101550001800003C00F0FF1FF8E73F1C00700C0073
:10156000600C0060000000000000000000000000AF
:10157000000000000000000000000000000000FF6C
:10158000FF7FFFFF7F000000000000000000000060
:10159000000000000000000000000000000000004B
:1015A0000000000C00600C00601C0070F8E73FF0C9
:1015B000FF1F003C000018000018000000000000A1
:1015C00000000000000000003000003C00000C00A3
:1015D000000C00001C0000380000700000600000DB
:1015E0006000007800001800000000000000F8FF14
:1015F00001080001080001080001F8FF01000000D7
:1016000000000000000000000000000000000000DA
:10161000000000000000000011241FBECFEFD8E042
:10162000DEBFCDBF14E0A0E0B1E0E2E1FCE602C025
:1016300005900D92A432B107D9F725E0A4E2B4E0F9
:1016400001C01D92A330B207E1F70E94562F0C94FF
:1016500007360C9400000F931F93CF938C01C62F75
:101660008091FD049091FE04DC015396ED91FC9174
:1016700062E009958091FD049091FE04DC01519691
:10168000ED91FC91A8016BE370E00995C1110DC0CB
:101690008091FD049091FE04DC015596ED91FC9142
:1016A0004FEF5FEF6FEF7FEF09958091FD04909111
:1016B000FE04DC015B96ED91FC9168E50995809153
:1016C000FD049091FE04DC015596ED91FC914FEFE5
:1016D0005FEF70E060E0CF911F910F91099481E07E
:1016E0008093F40488E68093F3041092F20410923D
:1016F000F1040895982F8091F0048111FCCF81E0CE
:101700008093F0048FEF8093EF041092EE04890F22
:101710008093ED0481ED8093EC0485EE8093BC0012
:101720008091F0048130E1F38091EE04891710F488
:101730009091EE04ACECB4E0ECEAF4E080E08913C4
:1017400001C008952D9121938F5FF9CF892B31F43A
:1017500082E090E090930201809301010895FC01E2
:1017600055834483778366830895FC0164870895D5
:10177000FC0171876087538742870895FC0182814D
:101780000895FC0183810895FC0180819181089571
:10179000FC0185810895FC0186810895FC01878103
:1017A0000895FC0167830895FC0180850895FC017C
:1017B00060870895860F911DFC0181850895860F2D
:1017C000911DFC0180890895FC0187890895FC0121
:1017D000808D0895FC01818D0895FC01828D08950E
:1017E000FC01838D0895FC01848D0895FC01858D95
:1017F0000895FC01868D0895FC01878D0895FC01F4
:10180000678F0895FC0180A10895FC0160A30895ED
:10181000FC0181A10895FC0161A30895E0918D046C
:10182000F0918E040190F081E02D0994CF93DF9325
:10183000EC0188810E940E0C9D838C8389810E941B
:101840000E0C9F838E832C813D81265D3140263492
:10185000310538F49C01265D314081E026343105A4
:1018600008F080E0DF91CF910895CF93DF93EC01F2
:1018700088810E940E0C9D838C839C01295C3240E0
:1018800081E02733314008F080E0DF91CF91089567
:10189000CF93DF93EC0188810E940E0C9C019D8305
:1018A0008C8381E02833314008F080E0DF91CF91D4
:1018B0000895CF93DF93EC0189810E940E0C9C0167
:1018C0009F838E8381E02833314008F080E0DF91F0
:1018D000CF910895CF93DF93EC0189810E940E0C84
:1018E0009F838E839C01295C324081E02733314005
:1018F00008F080E0DF91CF910895883069F08B3057
:1019000069F0853069F483B190E002C095958795C0
:101910006A95E2F78170089586B1F6CF89B1F4CF68
:1019200080E00895CF93DF93EC016A818B810E9460
:101930007D0C8887DF91CF910895883099F08B30A6
:1019400001F1853049F581E090E001C0880F6A958A
:10195000EAF795B1413019F4892B85B9089580953E
:101960008923FBCF81E090E001C0880F6A95EAF7F8
:1019700098B1413019F4892B88B90895809589234D
:10198000FBCF81E090E001C0880F6A95EAF79BB138
:10199000413019F4892B8BB9089580958923FBCFA9
:1019A0009091F404992391F09091F1049032B8F45D
:1019B0009091F204E92FF0E0E359FB4F808381E03E
:1019C000890F8093F2048093F10408959091F004BC
:1019D000943029F491E090936C0480934C04089522
:1019E0002091F10481E0213280F58091F004811191
:1019F000FCCF8091F30492E09093F0049FEF9093DA
:101A0000EF041092EE042093ED04EDE6F4E0ACEC6C
:101A1000B4E090E0291320C090E0880F991F8093D4
:101A2000EC0485EE8093BC008091F0048230E1F3F9
:101A30008091EF048F3FA1F08091EF04803291F00C
:101A40008091EF04803381F084E01092F2041092D0
:101A5000F1041092F404089531913D939F5FDACF21
:101A600080E0F3CF82E0F1CF83E0EFCF85ED80938C
:101A7000BC008091BC0084FDFCCF1092F00408955E
:101A8000419895B19C7F282F2370922B95B99BB1DB
:101A900093708C7F892B8BB9419A0895429A0C944C
:101AA000400D42980C94400DCF92DF92EF92FF923E
:101AB0000F931F93CF93DF93D82EC92EF62EE72EC8
:101AC000142F052FE9018AE20E94510D8C2D0E94EE
:101AD0004E0D8D2D0E944E0D8E2D0E944E0D8F2D80
:101AE0000E944E0D8BE20E94510D802F0E944E0DE0
:101AF000812F0E944E0D8D2F0E944E0D8C2F0E9423
:101B00004E0D8CE2DF91CF911F910F91FF90EF90DE
:101B1000DF90CF900C94510DCF93DF93CA01E90170
:101B200043989B012F5F3F4FFA013196AB01BF01F4
:101B30000E94540D8D2F0E944E0D8C2FDF91CF915E
:101B40000C944E0DAF92BF92CF92DF92EF92FF9224
:101B50000F931F93CF93DF93CA01E9019B012C0FD1
:101B60003D1FFA01E00FF11FAB01BF010E94540DB0
:101B7000D12CC12C21960F5F1F4FCC16DD06D8F05B
:101B8000DF91CF911F910F91FF90EF90DF90CF9059
:101B9000BF90AF9008958F2D0E944E0D8E2D0E9404
:101BA0004E0D8FEFA81AB80AA016B106A0F38FEF5A
:101BB000C81AD80AE2CFB12CA12CF6CFEF92FF922F
:101BC0000F931F93FC0102811381208131817B01DE
:101BD00050E040E070E060E090E080E00E94A20D04
:101BE0001F910F91FF90EF9008952F923F924F9287
:101BF0005F926F927F928F929F92AF92BF92CF929D
:101C0000DF92EF92FF920F931F93CF93DF9300D059
:101C100000D0CDB7DEB7FC01A680B780808191816E
:101C20000E978A159B0508F476C0248135813C8384
:101C30002B838281938148978217930708F46BC0A6
:101C4000162F3F019501215F3F4FA5016B817C81DC
:101C5000695E7F4F8B819C810E94540D612F110F13
:101C6000770B605271098AE2869F7001879FF00CA2
:101C70001124170133E0230E311CD12CC12CF701A4
:101C8000E85AF94FFA83E98326C0F801EE0FFF1FE7
:101C9000E00FF11F89819A81E80FF91FE491B501E6
:101CA000600F711FF0E0E421F521EF2B21F1F3012A
:101CB00020853185A40190E080E00E948C0D0F5FAB
:101CC0001F4F0E30110509F7FFEFCF1ADF0A28E08A
:101CD000C216D104A1F044244394512C0C2C02C010
:101CE000440C551C0A94E2F78B809C808C0C9D1C44
:101CF00010E000E0CACFF30122853385DBCF3FEF50
:101D0000E31AF30A8B819C8108969C838B83E214EF
:101D1000F30409F0B2CF0F900F900F900F90DF9166
:101D2000CF911F910F91FF90EF90DF90CF90BF90D8
:101D3000AF909F908F907F906F905F904F903F906B
:101D40002F900895FF920F931F93CF93DF93EC0191
:101D50008B01F12C8F2D90E0F801E80FF91F208105
:101D6000211106C0DF91CF911F910F91FF9008952F
:101D70002A3051F42C813D81285E3F4F3D832C83D6
:101D80001F821E820F5F1F4F288139812E5031091B
:101D90004E815F812417350740F42C813D811F82DD
:101DA0001E82285E3F4F3D832C832A813B81285130
:101DB00031094C815D812417350720F41F821E8272
:101DC0001D821C82800F911FFC016081CE010E9448
:101DD000F50D8E819F810E969F838E83F394BACFEB
:101DE0005F926F927F928F929F92AF92BF92CF92AB
:101DF000DF92EF92FF920F931F93CF93DF93FC013B
:101E0000C680D7808081918108978C159D0508F444
:101E100040C0C481D5818281938140978C179D07F2
:101E2000C0F1062F7F01BE01615F7F4F9601295FE0
:101E30003F4FA601CE010E94540D005280E1089F41
:101E4000800111243E01E0E16E0E711C0C1B1D0B84
:101E500008591F4F4601F8E08F0E911CF801EC0F56
:101E6000FD1F54905601F70150FE23C02085318597
:101E7000AE01B50190E080E00E948C0D5694FFEF1A
:101E8000AF1ABF0A8A149B0471F72196C615D705AD
:101E900029F7DF91CF911F910F91FF90EF90DF9085
:101EA000CF90BF90AF909F908F907F906F905F90FA
:101EB000089522853385DCCFFF920F931F93CF9334
:101EC000DF93EC018B01F12C8F2D90E0F801E80FEE
:101ED000F91F2081211106C0DF91CF911F910F9131
:101EE000FF9008952A3051F42C813D81205F3F4FAF
:101EF0003D832C831F821E820F5F1F4F28813981F3
:101F0000285031094E815F812417350740F42C8118
:101F10003D811F821E82205F3F4F3D832C832A819B
:101F20003B81205131094C815D812417350720F414
:101F30001F821E821D821C82800F911FFC01608106
:101F4000CE010E94F00E8E819F8108969F838E8322
:101F5000F394BACFFC012485213019F0223019F016
:101F600008950C945C0F0C94A20E8F929F92AF92E6
:101F7000BF92EF92FF920F931F93CF93DF93CDB752
:101F8000DEB72A970FB6F894DEBF0FBECDBF7C0137
:101F90009A01AB011A868E01065F1F4F8AE0882ED8
:101FA000912CA12CB12CCA01B901A50194010E9468
:101FB000BA34605DF80162938F0121153105410546
:101FC000510589F7F7018485813099F08230B1F0AD
:101FD0002A960FB6F894DEBF0FBECDBFDF91CF912A
:101FE0001F910F91FF90EF90BF90AF909F908F90B7
:101FF0000895B801C7010E945C0FEACFB801C7017C
:102000000E94A20EE5CFCF93DF93EC018C85813047
:1020100029F0823061F0DF91CF910895CE010E94C6
:10202000F00E8E819F8108969F838E83F4CFCE0120
:102030000E94F50D8E819F810E96F6CFCF93DF9390
:10204000C82FD62F0E946F0B8D2F0E94D00C8C2F83
:102050000E94D00CDF91CF910C94F00CCF93C82F3D
:102060000E946F0B8C2F0E94D00C0E94F00C81E01C
:102070000E947A0B1092290480932804882329F067
:102080008091AC0491E090932904CF910895CF936F
:10209000C82F8FE00E942E10CC2329F088606FE0BB
:1020A000CF910C941E10877FFACFCF93C82F8EE06C
:1020B0000E942E10837E6EE08C2BCF910C941E100C
:1020C000CF93DF93C82F8FE00E942E1090E0C15075
:1020D000DD0B02C095958795CA95E2F78170DF9177
:1020E000CF910895982F92959F708F702AE0929FBC
:1020F000800D112408956AE00E949A348295807FB1
:10210000890F08956F927F928F929F92AF92BF92A4
:10211000CF92DF92EF92FF920F931F93CF93DF93B3
:10212000CDB7DEB72A970FB6F894DEBF0FBECDBF8E
:1021300009831A832B834D837887032F303208F06D
:102140006BC04D3008F068C0A22E87E1821708F4FA
:1021500063C0912E8BE3811708F45EC089808815D7
:1021600008F45AC0F72E87E0871708F455C08EE0B0
:102170000E942E10B82E82FF4FC06E2C67946624EA
:1021800067948E2D8295880F880F8078C82E8E2DAB
:102190008295880F8078D82E1E2D12951078EE0C1F
:1021A000EE0C8E2D8074782EE6FEF02E882D0E9487
:1021B0007B1067E086290E941E10892D0E947B10EB
:1021C00068E08C290E941E108A2D0E947B1069E015
:1021D0008D290E941E108F2D0E947B1017296AE006
:1021E000812B0E941E106EE08B2D81602A960FB607
:1021F000F894DEBF0FBECDBFDF91CF911F910F913D
:10220000FF90EF90DF90CF90BF90AF909F908F9016
:102210007F906F900C941E102A960FB6F894DEBF34
:102220000FBECDBFDF91CF911F910F91FF90EF9027
:10223000DF90CF90BF90AF909F908F907F906F90E6
:1022400008958F929F92AF92BF92CF92DF92EF92BA
:10225000FF920F931F93CF93DF93CDB7DEB72A97EB
:102260000FB6F894DEBF0FBECDBF09831A832B8350
:102270004D837887032F303208F05FC04D3008F06F
:102280005CC0B22E87E1821708F457C0A12E8BE301
:10229000811708F452C089818C3308F04EC0F72EA4
:1022A00087E0871708F449C08EE00E942E10C82EE0
:1022B00082FF43C08E2C8794882487948E2D82952C
:1022C000880F880F8078D82E1E2D1295110F107848
:1022D000EE0CEE0CEE0C8E2D8074982EE6FEF02E99
:1022E0008A2D0E947B106BE088290E941E108B2D86
:1022F0000E947B106CE08D290E941E108F2D0E9481
:102300007B1019296DE0812B0E941E106EE08C2D30
:1023100082602A960FB6F894DEBF0FBECDBFDF9164
:10232000CF911F910F91FF90EF90DF90CF90BF90D2
:10233000AF909F908F900C941E102A960FB6F89431
:10234000DEBF0FBECDBFDF91CF911F910F91FF90E8
:10235000EF90DF90CF90BF90AF909F908F900895B7
:10236000CF93DF939FEF980F923098F4C82F8FE0B0
:102370000E942E10C150DD0B21E030E001C0220F81
:10238000CA95EAF720956FE08223DF91CF910C94F4
:102390001E10DF91CF910895CF93DF939FEF980F99
:1023A000923098F4C82F8EE00E942E10C150DD0BA1
:1023B00021E030E001C0220FCA95EAF720956EE0D7
:1023C0008223DF91CF910C941E10DF91CF9108955D
:1023D0008F929F92AF92BF92CF92DF92EF92FF9235
:1023E0000F931F93CF93DF93CDB7DEB729970FB627
:1023F000F894DEBF0FBECDBF8C010E946F0B80E052
:102400000E94D00C0E94F00C87E00E947A0B80930F
:102410002804FE013196AE01485F5F4F90E020E056
:10242000981730F4A92FB0E0A455BB4F2C919F5FB3
:1024300021934E175F0799F7909329040E94F00C9F
:1024400089810E947210882E8A810E947210982EB3
:102450008B810E947210D82E8D810E947210A82E3E
:10246000CE808C2D8F710E947210B82E8F810E94A9
:102470007210E82EF12CC7FE14C080E3E81A88EF32
:10248000F80A8C810E947210873009F480E0DD2008
:1024900069F0EBE094EF9D0D20E0ED1548F09D2DE7
:1024A00006C094E9E91A98EFF90AEBCF90E021E031
:1024B000F80180829182D282A382B482F682E58280
:1024C000878320879187C80129960FB6F894DEBFCD
:1024D0000FBECDBFDF91CF911F910F91FF90EF9075
:1024E000DF90CF90BF90AF909F908F900895FF9214
:1024F0000F931F93CF93DF93EC010E94E81187E0C5
:102500000E942E108F770E947210F82E88E00E9491
:102510002E108F770E947210082F89E00E942E10D3
:102520008F730E947210182F8AE00E942E10807400
:102530000E947210882389F08AE00E942E108F700A
:102540000E947210F88209831A838B83CE01DF9177
:10255000CF911F910F91FF9008958AE00E942E1055
:102560008F73EECF0F931F93CF93DF93EC010E94F5
:10257000E8118BE00E942E108F770E947210082FB6
:102580008CE00E942E108F730E947210182F8DE025
:102590000E942E1080740E947210882381F08DE0BA
:1025A0000E942E108F700E947210188209831A8365
:1025B0008B83CE01DF91CF911F910F9108958DE014
:1025C0000E942E108F73EFCFEF92FF920F931F9305
:1025D000CF93DF93803208F069C06D3008F066C099
:1025E0009A01403D97E0590710F0205D3740E82FF1
:1025F000F0E0A3E2B1E091E0961708F44EC063303A
:1026000030F0D901A370BB27AB2B09F43196EA0156
:10261000162F082F4DE651E0249FC001259F900DF5
:10262000349F900D112405962D5F3F4F36952795C9
:1026300036952795820F931F8E0F9F1F67E070E0DE
:102640000E94A634E82E0E946F0B83E00E94D00CFB
:10265000C13D87E0D80730F1C05DD74080E8F82E53
:102660008E2D0E947B100E94D00C802F0E947B1028
:102670000E94D00C812F0E947B108F0D0E94D00CE5
:102680008C2F0E947B100E94D00CDF91CF911F9164
:102690000F91FF90EF900C94F00C7D91E70FF11DDE
:1026A0009F5FAACFCC56D740F12CDACFDF91CF91E4
:1026B0001F910F91FF90EF9008951F93CF93DF9399
:1026C000883100F56C33F0F44C33E0F4142FD62F3E
:1026D000C82F0E946F0B80E00E94D00C812F0E94B7
:1026E0007B100E94D00C8D2F0E947B100E94D00C7A
:1026F0008C2F0E947B100E94D00CDF91CF911F91F4
:102700000C94F00CDF91CF911F9108951092290441
:10271000109228041092F2041092F1041092F00426
:10272000449A459AE9EBF0E080818E7F8083808136
:102730008D7F808388E48093B80085E48093BC001B
:1027400078940895CF93DF93EC018091FD049091EC
:10275000FE04DC015F96ED91FC91CA30D10590F446
:1027600040E050E0BA0109958091FD049091FE048B
:10277000AE0170E060E0DC015F96ED91FC91DF91CD
:10278000CF910994C831D10571F42091F7043091AB
:10279000F8042330310541F740E050E0BA010995D3
:1027A000D0E0C0E0E1CFCC33D105F1F62091F704C1
:1027B0003091F804245031092230310568F3D4CF28
:1027C000EF92FF920F931F93CF93DF938C017B01C6
:1027D000EA018091FD049091FE04DC015396ED9195
:1027E000FC91622F09958091FD049091FE04DC011B
:1027F0005196ED91FC91A701B80109958091FD04D6
:102800009091FE04DC015D96ED91FC91BE01DF919B
:10281000CF911F910F91FF90EF900994AF92BF92CB
:10282000CF92DF92EF92FF920F931F93CF93DF939C
:102830008C01EB018091FD049091FE04DC01559622
:10284000ED91FC916FEF7FEF0995EDADFEADCE01FF
:10285000099522E0AC016BE470E0C80140960E944B
:10286000E01321E04EE251E063E770E0C8010E940E
:10287000E013F12C5E01B9E5AB0EB11CE091FD0453
:10288000F091FE04C38CD48CD501ED91FC916F2D99
:10289000CE010995682F8091FD049091FE04F60108
:1028A0000995F394F7E0FF12E9CF21E04FE351E0FF
:1028B00069E870E0C8010E94E0137E018DE5E80E32
:1028C000F11CD701ED91FC91CE010995883109F0F9
:1028D000F4C18091FD049091FE04DC015F96ED91BE
:1028E000FC9140E050E0BA010995E091FD04F091BF
:1028F000FE04C78CD0A0D701ED91FC91CE010995C3
:102900008851990BAC01990F660B770B8091FD04F0
:102910009091FE04F60109958091FD049091FE04CA
:10292000DC015B96ED91FC916AE309956E01B1E6DD
:10293000CB0ED11CD601ED91FC91CE0109958A30C8
:1029400060F48091FD049091FE04DC015F96ED91AE
:10295000FC9140E050E0BA010995E091FD04F0914E
:10296000FE04E78CF0A0D601ED91FC91CE01099513
:10297000482F50E070E060E08091FD049091FE04EB
:10298000F70109958091FD049091FE04DC015B96AE
:10299000ED91FC916AE309956E01B5E6CB0ED11C71
:1029A000D601ED91FC91CE0109958A3060F48091B9
:1029B000FD049091FE04DC015F96ED91FC9140E0F6
:1029C00050E0BA010995E091FD04F091FE04E78C16
:1029D000F0A0D601ED91FC91CE010995482F50E071
:1029E00070E060E08091FD049091FE04F70109958C
:1029F00021E040E551E06FE970E0C8010E94E0137A
:102A00007E01F9E6EF0EF11CD701ED91FC91CE01AC
:102A10000995883109F074C18091FD049091FE04FC
:102A2000DC015F96ED91FC9140E050E0BA01099520
:102A3000E091FD04F091FE04C78CD0A0D701ED9188
:102A4000FC91CE0109958851990BAC01990F660B49
:102A5000770B8091FD049091FE04F6010995809119
:102A6000FD049091FE04DC015B96ED91FC916AE31C
:102A700009956E01BDE6CB0ED11CD601ED91FC91FE
:102A8000CE0109958A3060F48091FD049091FE0496
:102A9000DC015F96ED91FC9140E050E0BA010995B0
:102AA000E091FD04F091FE04E78CF0A0D601ED91D9
:102AB000FC91CE010995482F50E070E060E08091D4
:102AC000FD049091FE04F70109958091FD04909119
:102AD000FE04DC015B96ED91FC916AE309956E01C1
:102AE000B1E7CB0ED11CD601ED91FC91CE01099539
:102AF0008A3060F48091FD049091FE04DC015F96C1
:102B0000ED91FC9140E050E0BA010995E091FD049F
:102B1000F091FE04E78CF0A0D601ED91FC91CE017E
:102B20000995482F50E070E060E08091FD0490919D
:102B3000FE04F701099521E041E651E065EB70E004
:102B4000C8010E94E013FE01E75BFF4F0190F08196
:102B5000E02DCE010995882309F418C17E01F5E71F
:102B6000EF0EF11CD701ED91FC91CE010995883152
:102B700009F0E9C08091FD049091FE04DC015F96AC
:102B8000ED91FC9140E050E0BA010995E091FD041F
:102B9000F091FE04C78CD0A0D701ED91FC91CE013D
:102BA00009958851990BAC01990F660B770B8091B1
:102BB000FD049091FE04F60109958091FD04909129
:102BC000FE04DC015B96ED91FC916AE309956E01D0
:102BD000B9E7CB0ED11CD601ED91FC91CE01099540
:102BE0008A3060F48091FD049091FE04DC015F96D0
:102BF000ED91FC9140E050E0BA010995E091FD04AF
:102C0000F091FE04E78CF0A0D601ED91FC91CE018D
:102C10000995482F50E070E060E08091FD049091AC
:102C2000FE04F701099521E04AE751E06BEC70E002
:102C3000C8010E94E013FE01EF5AFF4F0190F0819E
:102C4000E02DCE010995A091FD04B091FE045D96A2
:102C5000ED91FC915E976BE871E0811102C06FE825
:102C600071E0CD01099521E042E951E061EE70E0AB
:102C7000C8010E94E013FE01EB5BFF4F0190F08161
:102C8000E02DCE010995A091FD04B091FE045D9662
:102C9000ED91FC915E976BE871E0811102C06FE8E5
:102CA00071E0CD01DF91CF911F910F91FF90EF90D7
:102CB000DF90CF90BF90AF900994D701ED91FC9138
:102CC000CE0109958A3060F48091FD049091FE0454
:102CD000DC015F96ED91FC9140E050E0BA0109956E
:102CE000E091FD04F091FE04C78CD0A0D701ED91D6
:102CF000FC91CE010995482F50E070E060E006CECF
:102D0000D701ED91FC91CE0109958A3060F4809154
:102D1000FD049091FE04DC015F96ED91FC9140E092
:102D200050E0BA010995E091FD04F091FE04C78CD2
:102D3000D0A0D701ED91FC91CE010995482F50E02C
:102D400070E060E086CED701ED91FC91CE0109954F
:102D50008A3060F48091FD049091FE04DC015F965E
:102D6000ED91FC9140E050E0BA010995E091FD043D
:102D7000F091FE04C78CD0A0D701ED91FC91CE015B
:102D80000995482F50E070E060E011CF8091FD047C
:102D90009091FE04DC015D96ED91FC9162E771E09B
:102DA000099541CFEF92FF920F931F93CF93DF933B
:102DB000EC01E091FD04F091FE04018CF28DE02D18
:102DC000F12CE12C00E310E020EE31E050E040E097
:102DD00070E060E090E080E00995E091FD04F09102
:102DE000FE04018CF28DE02DEE24EA94FE2C0FE01F
:102DF00011E020EE31E041E350E070E060E090E06F
:102E000080E009958091FD049091FE04DC015596C7
:102E1000ED91FC9150E040E06FEF7FEF099522E0EB
:102E2000AE016CE070E08DE290E00E94E0138091D2
:102E3000FD049091FE04DC015596ED91FC914FEF5D
:102E40005FEF70E060E0DF91CF911F910F91FF90F5
:102E5000EF900994EF92FF920F931F93CF93DF931C
:102E60008C01EB018091FD049091FE04DC015596EC
:102E7000ED91FC916FEF7FEF099521E04FE351E079
:102E800069E870E0C8010E94E0138E01035A1F4FE9
:102E9000D801ED91FC91CE010995883109F095C0DA
:102EA0008091FD049091FE04DC015F96ED91FC9110
:102EB00040E050E0BA010995E091FD04F091FE0474
:102EC000E78CF0A0D801ED91FC91CE0109958851D5
:102ED000990BAC01990F660B770B8091FD049091D3
:102EE000FE04F70109958091FD049091FE04DC0138
:102EF0005B96ED91FC916AE309957E01B1E6EB0EDC
:102F0000F11CD701ED91FC91CE0109958A3060F456
:102F10008091FD049091FE04DC015F96ED91FC919F
:102F200040E050E0BA010995E091FD04F091FE0403
:102F3000078D10A1D701ED91FC91CE010995482F85
:102F400050E070E060E08091FD049091FE04F80193
:102F500009958091FD049091FE04DC015B96ED9152
:102F6000FC916AE309957E01B5E6EB0EF11CD701F1
:102F7000ED91FC91CE0109958A3060F48091FD04B9
:102F80009091FE04DC015F96ED91FC9140E050E0F1
:102F9000BA010995E091FD04F091FE04078D10A19E
:102FA000D701ED91FC91CE010995482F50E070E0DA
:102FB00060E08091FD049091FE04F801DF91CF91D3
:102FC0001F910F91FF90EF900994D801ED91FC9122
:102FD000CE0109958A3060F48091FD049091FE0441
:102FE000DC015F96ED91FC9140E050E0BA0109955B
:102FF000E091FD04F091FE04E78CF0A0D801ED9182
:10300000FC91CE010995482F50E070E060E065CF5B
:10301000CF93DF938091FD049091FE04DC015596DF
:10302000ED91FC914FEF5FEF6FEF7FEF0995C0E5FA
:10303000D0E022E043EA51E0BE0182E190E00E944C
:10304000E013A896C034B1E0DB0799F722E043EA29
:1030500051E068E171E087E591E00E94E013809122
:10306000AA049091AB040397C1F480912604909137
:103070002704049791F422E043EA51E060E570E010
:1030800085E091E00E94E01322E043EA51E068E726
:1030900070E085E091E00E94E0138091FD04909142
:1030A000FE04DC015596ED91FC914FEF5FEF70E06F
:1030B00060E00995E0910301E150E930D0F4F0E0DF
:1030C000E959F74E22E043EA51E00C94DC347018E1
:1030D0007C1884188C1894189C18A418AC18B41870
:1030E00060E570E082E190E00E94E01381E080936F
:1030F0000001DF91CF91089568E770E082E190E0F0
:103100000E94E01382E0F3CF60EA70E082E190E099
:103110000E94E01383E0EBCF68EC70E082E190E086
:103120000E94E01384E0E3CF60EF70E082E190E082
:103130000E94E01385E0DBCF68E171E082E190E07E
:103140000E94E01386E0D3CF60E570E085E091E077
:103150000E94E01387E0CBCF68E770E085E091E064
:103160000E94E01388E0C3CF68E171E087E591E059
:103170000E94E01389E0BBCFCF93C62FA091FD043E
:10318000B091FE045596ED91FC9156974FEF5FEF8D
:1031900070E060E0811102C06FEF7FEFCD01099513
:1031A0008091FD049091FE04DC015396ED91FC9119
:1031B00062E00995C730D0F4EC2FF0E0E951F74E0A
:1031C0008091FD049091FE04DC010C94DC34EE1837
:1031D0000E1914191A19201926192E195196ED9144
:1031E000FC9140E550E06BE370E009958091FD04AF
:1031F0009091FE04DC015B96ED91FC9168E50995E8
:103200008091FD049091FE04DC015596ED91FC91B6
:103210004FEF5FEF70E060E0CF9109945196ED9130
:10322000FC9148E750E0DFCF5196ED91FC9140EAE8
:1032300050E0D9CF5196ED91FC9148EC50E0D3CFBE
:103240005196ED91FC9140EF50E0CDCF5196ED912C
:10325000FC9140E550E06EE271E0C7CF5196ED91F0
:10326000FC9148E750E0F7CF0E94D21622E045EAF1
:1032700051E060E570E08DE290E00E94E01322E012
:1032800045EB51E068E770E08DE290E00E94E013CA
:1032900022E045EC51E068E171E082E791E00C94B6
:1032A000E0130F931F93CF93DF93162FD42FC22FCA
:1032B0000E94D2168091FD049091FE04DC01559687
:1032C000ED91FC914FEF5FEF70E060E0099522E037
:1032D0004AEC51E060E570E08DE290E00E94E0137E
:1032E000812F90E00E94A2138091FD049091FE0432
:1032F000DC015D96ED91FC9162E072E0099522E0BF
:1033000047ED51E068E770E08DE290E00E94E01345
:10331000DC3309F4D0E08D2F90E00E94A21380915D
:10332000FD049091FE04DC015D96ED91FC9162E05C
:1033300072E0099522E00F3F21F144EE51E060EA8E
:1033400070E08DE290E00E94E0138091FD04909186
:10335000FE04DC015D96ED91FC916DEE71E00111D2
:1033600002C069EF71E0099522E045EC51E068E1A7
:1033700071E082E791E0DF91CF911F910F910C9462
:10338000E01345E052E060EA70E08DE290E00E94D8
:10339000E013CC3309F4C0E08C2F90E00E94A2131C
:1033A0008091FD049091FE04DC015D96ED91FC910D
:1033B00062E072E0D8CF82E192E00E94D21622E071
:1033C0004BE152E060E570E08DE290E00E94E01396
:1033D00022E047E252E068E770E08DE290E00E9470
:1033E000E01322E04BE352E060EA70E08DE290E00F
:1033F0000E94E01322E04BE452E068EC70E08DE2C2
:1034000090E00C94E013813019F08230E1F00895DF
:103410008091FD049091FE04DC015596ED91FC91A4
:1034200040E058EF662361F06FEF7FEF099522E0EF
:103430004DE552E060E171E08CE191E00C94E01325
:1034400060E078EFF3CF8091FD049091FE04DC0101
:103450005596ED91FC9150E040E0662359F06FEFF6
:103460007FEF099522E04DE552E060E171E08CE2EA
:1034700090E0E4CF70E060E0F4CFCF93DF93C9EF4A
:10348000D4E088819981FC01EF5AFF4F0190F081CF
:10349000E02D099581111FC088819981FC01EB5BAA
:1034A000FF4F0190F081E02D09958823A1F0E8817C
:1034B000F981638184810E947D0C28813981F90121
:1034C000FF960190F081E02D81110DC0C901099591
:1034D00061E00E94031A229684E0CD3FD80789F666
:1034E000DF91CF910895C901099560E0F2CFEF9285
:1034F000FF920F931F93CF93DF93E091FD04F09120
:10350000FE04018CF28DE02DF12CE12C00E310E0A3
:1035100020EE31E050E040E070E060E090E080E0DC
:103520000995E091FD04F091FE04018CF28DE02DEF
:103530000FE011E02FEE30E041E350E070E060E09A
:1035400090E080E00995E091FD04F091FE04018C8B
:10355000F28DE02DE12C88EFF82E20EF30E041E3F2
:1035600050E060EF70E090E080E009956091FB042E
:103570007091FC0450E040E088E190E00E940E145D
:103580006091F9047091FA0440E058EF88E091E00E
:103590000E940E14C9EFD4E089919991FC01EF5A71
:1035A000FF4F0190F081E02D0995FE0132978823AD
:1035B000B1F080819181FC01FF960190F081E02DB6
:1035C000099561E00E94031A84E0CD3FD80721F7F6
:1035D000DF91CF911F910F91FF90EF90089580811F
:1035E0009181FC01FF960190F081E02D099560E04A
:1035F000E9CF0F931F93CF93DF93CDB7DEB72A9711
:103600000FB6F894DEBF0FBECDBF09831A832B839C
:103610003C834D835E836F83788789879A87809107
:10362000FD049091FE04DC015596ED91FC9150E073
:1036300040E06FEF7FEF09958091FD049091FE04CB
:10364000DC015396ED91FC9161E00995E885E73046
:10365000A8F4F0E0E15DF44E21E00C94DC34721B40
:10366000361B631B661B691B6C1B6F1B4DE853E00D
:103670006CE070E08FE090E00E94E0138091FD0428
:103680009091FE04DC015D96ED91FC9169E672E09B
:103690000995ED81E150EC3070F5F0E0E95AF44E17
:1036A0008091FD049091FE04DC010C94DC34751BC8
:1036B000DB1BE11BE71BED1BF31BF91BFF1B051CB1
:1036C0000B1C111C171C47E953E0D2CF43EA53E00F
:1036D000CFCF40EB53E0CCCF4CEB53E0C9CF46EC1F
:1036E00053E0C6CF42ED53E0C3CF5D96ED91FC9120
:1036F0006CE672E009958C8190E00E94A2138091A3
:10370000FD049091FE04DC015D96ED91FC9169E66B
:1037100072E009958091FD049091FE044E815F81D5
:1037200070E060E0DC015F96ED91FC91099580917D
:10373000FD049091FE04DC015D96ED91FC916EEC30
:1037400072E009958091FD049091FE04DC01519690
:10375000ED91FC914CE050E061E971E009958B81BD
:1037600090E00E94A2138091FD049091FE04DC0180
:103770005D96ED91FC9165ED72E009958A8190E08E
:103780000E94A2138091FD049091FE04DC015D96DD
:10379000ED91FC9165ED72E00995898190E02A96A2
:1037A0000FB6F894DEBF0FBECDBFDF91CF911F9152
:1037B0000F910C94A2135D96ED91FC9165E772E078
:1037C00099CF5D96ED91FC916FE772E093CF5D9696
:1037D000ED91FC9166E872E08DCF5D96ED91FC91E4
:1037E0006DE872E087CF5D96ED91FC9162E972E041
:1037F00081CF5D96ED91FC9168E972E07BCF5D969B
:10380000ED91FC916EE972E075CF5D96ED91FC91C2
:1038100066EA72E06FCF5D96ED91FC9161EB72E02C
:1038200069CF5D96ED91FC916AEB72E063CF5D9696
:10383000ED91FC9164EC72E05DCFEF92FF920F93FB
:103840001F93CF93DF93CDB7DEB764970FB6F8948D
:10385000DEBF0FBECDBF182FE0919E04F0919F04F4
:103860000684F785E02D81E00995E0919E04F091B2
:103870009F040084F185E02DCE01019609959A817F
:103880003B818981810F20E08C3310F08C5321E043
:10389000290F90E02C3310F02C5391E0930F9831C6
:1038A00008F0985189832A839B838AE0FE01319630
:1038B000DE011B9601900D928A95E1F7E0919E043E
:1038C000F0919F040088F189E02D8EE0E82EF12C24
:1038D0000B851C852D853E854F85588969897A8998
:1038E0008B899C89099564960FB6F894DEBF0FBE4C
:1038F000CDBFDF91CF911F910F91FF90EF90089571
:103900000F931F93CF93DF93C9EFD4E001E010E052
:1039100089919991FC01EF5AFF4F0190F081E02DC0
:103920000995882309F183E090E090930201809348
:1039300001011092AB041092AA0410922504109277
:10394000240410922704109226041092F804109276
:10395000F70481E00E941D1C0E94771ADF91CF912D
:103960001F910F910C943D1AFE0132978081918135
:10397000FC01E35BFF4F0190F081E02D099581117F
:10398000D2CF109302010093010184E0CD3FD8070C
:1039900081F2BECFAF92BF92CF92DF92EF92FF92B1
:1039A0000F931F93CF93DF93CDB7DEB72A970FB650
:1039B000F894DEBF0FBECDBF8C01FC01E959FF4F6B
:1039C000E080F1807E960190F081E02D099550E035
:1039D00040E0682FC801F7010995E0919E04F0913D
:1039E0009F040084F185E02DCE0101960995FA80AF
:1039F000EB805801F9E7AF0EB11CD501ED91FC91B8
:103A0000C8010995EF2DE80FFF27FF1FCF01D50152
:103A1000ED91FC9198012D593F4F6901CC970CF421
:103A200058C0C801099560E0823040F0D501ED91A1
:103A3000FC91C801099564EC6F0D680FD601ED91FA
:103A4000FC9150E040E0C8010995FF24F39468011F
:103A5000F5E7CF0ED11CD601ED91FC91C801099577
:103A6000EE2DE80FFF27FF1FCF018F0D911DD6010F
:103A7000ED91FC9111975697CD90DC904897BCF151
:103A8000C801099568EE6E0D6F0D680F50E040E0BB
:103A9000C801F60109958D819C81890F9927991F8D
:103AA0002E813F81820F931F9093900480938F0407
:103AB0002A960FB6F894DEBF0FBECDBFDF91CF912F
:103AC0001F910F91FF90EF90DF90CF90BF90AF903C
:103AD0000895D901CD90DC90C8010995682F6F0D2C
:103AE00050E040E0C801F6010995F12CB0CFC801C3
:103AF00009956F2D6E0DC9CF0E94D21622E047EDB9
:103B000052E060E570E08DE290E00E94E01322E078
:103B100042EE52E068E770E08DE290E00E94E01330
:103B200022E04AEE52E060EA70E08DE290E00E940E
:103B3000E01322E044EF52E068EC70E08DE290E0A8
:103B40000E94E01322E042E053E060EF70E08DE27B
:103B500090E00E94E01322E042E153E068E171E06E
:103B60008DE290E00E94E01381E0809303010C94C9
:103B7000081887E193E00E94D2168091FD0490918D
:103B8000FE04DC015596ED91FC914FEF5FEF60E094
:103B900078EF099522E049EA51E060E570E08DE2B6
:103BA00090E00E94E0138091FD049091FE04DC01FE
:103BB0005596ED91FC914FEF5FEF70E060E0099555
:103BC00022E049EB51E068E770E08DE290E00E946E
:103BD000E01322E042E153E060EF70E08DE290E01C
:103BE0000E94E01381E0809303010C9408180F9366
:103BF0001F93CF93DF938091AA049091AB048530FB
:103C0000910509F03FC08BE293E00E943419809146
:103C1000AA049091AB0485309105C9F509EF14E031
:103C2000C0E5D0E08091FD049091FE04DC01519646
:103C3000ED91FC91AE016BE370E00995F801819183
:103C400091918F01FC01EB5BFF4F0190F081E02D22
:103C50000995882351F08091FD049091FE04DC01C8
:103C60005B96ED91FC9168E50995A896C03AD1055F
:103C7000C9F681E080930301DF91CF911F910F91ED
:103C80000C940818049789F58DE393E0BECF049750
:103C900081F709EF14E0C0E5D0E08091FD04909138
:103CA000FE04DC015196ED91FC91AE016BE370E0F6
:103CB0000995F801819191918F01FC01EF5AFF4F15
:103CC0000190F081E02D0995882351F08091FD0449
:103CD0009091FE04DC015B96ED91FC9168E50995FD
:103CE000A896C03AD105C9F6C4CFDF91CF911F91F4
:103CF0000F9108956F927F928F929F92AF92BF9291
:103D0000CF92DF92EF92FF920F931F93CF93DF93A7
:103D1000CDB7DEB72A970FB6F894DEBF0FBECDBF82
:103D200089EFC82E84E0D82E9DEFA92E94E0B92EFD
:103D3000D6018D919D916D01FC01E75BFF4F0190D4
:103D4000F081E02D0995882309F45FC0F6011291F6
:103D500002917F01E0919E04F0919F040084F1851F
:103D6000E02DCE01019609956A807B808D819C8132
:103D7000890F9927991F2E813F81820F931F2091D0
:103D80008F04309190042817390730F5D7018D91B1
:103D90009C91FC01E35BFF4F0190F081E02D0995C0
:103DA000811133C0F701808191810E94CA1CD70123
:103DB0000D911C91F801FF960190F081E02DC80152
:103DC0000995813009F45BC08230F9F450E040E09D
:103DD000B80188E190E058C04801BDE58B0E911C08
:103DE000D401ED91FC91C8010995871578F2D401B1
:103DF000ED91FC91C8010995781601F1D401ED917E
:103E0000FC91C8010995781621F1AC14BD0409F0A4
:103E10008FCF2A960FB6F894DEBF0FBECDBFDF91CD
:103E2000CF911F910F91FF90EF90DF90CF90BF90B7
:103E3000AF909F908F907F906F900895F801EF5909
:103E4000FF4F0190F081E02DC80109958615B0F66D
:103E50009DCFF801EF59FF4F0190F081E02DC8018F
:103E600009956812D2CF9980F801EB59FF4F019064
:103E7000F081E02DC8010995891538F687CF40E01B
:103E800058EFB80188E091E00E942A17BECF0F9347
:103E90001F93CF93DF93EC016B818C812091AA0457
:103EA0003091AB048E01015B1F4F41E0232BD1F514
:103EB0000E949D0CD801ED91FC9160E0CE01099526
:103EC0000E943D1AC9EFD4E001E010E08991999178
:103ED000FC01E35BFF4F0190F081E02D099581111A
:103EE0001AC0FE01329780819181FC01EF5AFF4F89
:103EF0000190F081E02D099581110DC01093020110
:103F000000930101B4E0CD3FDB0701F7DF91CF91D2
:103F10001F910F91089583E090E0909302018093A8
:103F20000101F4CF0E949D0CD801ED91FC9160E05D
:103F3000CE01DF91CF911F910F910994CF93DF9321
:103F4000EC018091AA049091AB04892BC1F4FE018D
:103F5000E15BFF4F0190F081E02D61E0CE0109951A
:103F600040E06B818C810E949D0C83E090E09093F7
:103F7000020180930101DF91CF910C943D1A40E042
:103F80006B818C81DF91CF910C949D0CCF93DF934B
:103F9000EC01FC01EF5AFF4F0190F081E02D0995F3
:103FA000882329F0CE01DF91CF910C949E1FCE0182
:103FB000DF91CF910C94471F80910301823081F0F3
:103FC00018F4813031F00895833069F0843071F055
:103FD000089583E090E09093F8048093F7040895A7
:103FE00084E090E0F8CF85E090E0F5CF86E090E0C7
:103FF000F2CFAF92BF92CF92DF92EF92FF920F93E8
:104000001F93CF93DF937C016B018A01590180914B
:10401000F5049091F604DC011F96ED91FC91099551
:10402000E5018823B9F1EA14FB0414F0E6012196B6
:1040300021978091FD049091FE04DC015596ED914D
:10404000FC914FEF5FEF70E060E009958091FD0417
:104050009091FE04DC015196ED91FC91A80165ED73
:1040600070E00995CE010E94A213BFEF21EE84E01B
:10407000B15020408040E1F700C00000CE01DF9148
:10408000CF911F910F91FF90EF90DF90CF90BF9055
:10409000AF9008958091F5049091F604DC011D968F
:1040A000ED91FC910995882349F32196CC16DD0604
:1040B0000CF0BFCFE701BDCF90917C00907F909333
:1040C0007C0090917C00892B80937C0080917A0009
:1040D000806880937A0080E18A95F1F780917A0078
:1040E000806480937A0080917A0084FFFCCF809175
:1040F0007A00806180937A0080917A008F77809334
:104100007A0080917800909179000895CF93DF93A1
:10411000FC01EB016830710509F41FC108F016C1FC
:10412000209709F421C11582148217821682118604
:1041300010868FEF9FEF9387828782E0848787B115
:104140008F6087B984B1836084B98AB18C6F8AB972
:10415000439A419A409A439881E00E94510D2FEF73
:1041600080E792E0215080409040E1F700C00000DD
:1041700080EB0E94510D80E00E944E0D80EC0E9469
:10418000510D8FE10E944E0D8FE10E944E0D81E195
:104190000E94510D8FE39CE90197F1F700C00000E8
:1041A0008AE30E94510D85E50E944E0D86E30E9430
:1041B000510DC830D10509F4EBC008F0DEC080E035
:1041C000CD2B09F4E2C082EC0E94510D84E40E94E0
:1041D0004E0D85EC0E94510D80E00E944E0D80E056
:1041E0000E944E0D80E00E944E0D80E00E944E0D18
:1041F00080EE0E94510D8FE00E944E0D8FE10E94D3
:104200004E0D8CE10E944E0D8CE00E944E0D8FE011
:104210000E944E0D88E00E944E0D88E40E944E0DD3
:1042200088E90E944E0D87E30E944E0D8AE00E94AD
:104230004E0D83E10E944E0D84E00E944E0D81E1FF
:104240000E944E0D8DE00E944E0D80E00E944E0DAA
:1042500081EE0E94510D8FE00E944E0D82E30E947C
:104260004E0D8EE20E944E0D8BE00E944E0D8DE0B1
:104270000E944E0D85E00E944E0D87E40E944E0D77
:1042800085E70E944E0D87E30E944E0D86E00E9456
:104290004E0D80E10E944E0D83E00E944E0D84E29F
:1042A0000E944E0D80E20E944E0D80E00E944E0D55
:1042B00082EE0E94510D8FE00E944E0D82E30E941B
:1042C0004E0D8EE20E944E0D8BE00E944E0D8DE051
:1042D0000E944E0D85E00E944E0D87E40E944E0D17
:1042E00085E70E944E0D87E30E944E0D86E00E94F6
:1042F0004E0D80E10E944E0D83E00E944E0D84E23F
:104300000E944E0D80E20E944E0D80E00E944E0DF4
:1043100083E10E94510D80E20E94510D81E10E94D3
:10432000510D9FEF20E782E0915020408040E1F75F
:1043300000C0000089E20E94510D8FE39CE90197C3
:10434000F1F700C00000DF91CF910895603C710546
:1043500059F0683C710509F0E6CE80EE91E091835A
:10436000808380E491E006C080E491E091838083C3
:1043700080EE91E093838283D6CEC03CD10551F08C
:1043800088ECC83CD10509F01ECF0E944E0D1BCF12
:1043900088E0FBCF80ECF9CFCF93C82F8091F50454
:1043A0009091F604DC015196ED91FC9109958823DA
:1043B000B9F0BFEF21EE84E0B15020408040E1F73A
:1043C00000C0000080910301823018F4CF5FC093D9
:1043D000030180910301815080930301CF910895DF
:1043E0008091F5049091F604DC015396ED91FC91D7
:1043F0000995882399F3BFEF21EE84E0B150204066
:104400008040E1F700C00000809103018C1710F09C
:1044100010920301809103018F5FDECF809126040B
:10442000909127048230910589F028F4009749F093
:10443000019761F008958330910541F00497E9F008
:10444000089586E00E94CC210C94081884E00E9414
:10445000CC2180910301843019F489E08093030119
:104460000E94081880910301893029F484E0809328
:104470000001809303010C94DC1F8091F50490915E
:10448000F604DC015196ED91FC910995882359F0D1
:1044900089E00E94CC21809103018630A9F685E055
:1044A00080930301D1CF8091F5049091F604DC0153
:1044B0005396ED91FC910995882331F289E00E9491
:1044C000CC2180910301863009F0BECF87E0E8CF90
:1044D0008091F5049091F604DC015196ED91FC91E8
:1044E00009958823D1F08EE10E941D1C8091AA04B9
:1044F0009091AB048330910509F45DC030F48130B4
:104500009105B9F00297D1F008958430910509F42E
:1045100073C0059709F470C008958091F5049091D7
:10452000F604DC015396ED91FC9109958111DBCFE6
:10453000089584E00E94CC210C94081886E00E9423
:10454000CC2180910301863019F489E08093030126
:104550000E94081880910301893029F486E0809335
:10456000000180930301809103018330C1F028F49E
:10457000813049F0823061F008958530B1F090F0DB
:104580008630B1F008951092F8041092F70408955F
:1045900081E090E09093F8048093F704089582E01E
:1045A00090E0F8CF83E090E0F5CF84E090E0F2CFA8
:1045B00086E090E0EFCF809124049091250400974D
:1045C00019F00397B8F0089583E00E94CC21809100
:1045D0000301833019F485E0809303010E940818D9
:1045E000809103018530C1F483E0809300018093C2
:1045F000030108950C940E2283E00E94CC21809147
:104600000301833019F489E0809303010E940818A4
:1046100080910301893041F308956F927F928F92C8
:104620009F92AF92BF92CF92DF92FF920F931F9310
:10463000CF93DF93CDB7DEB72E970FB6F894DEBFDA
:104640000FBECDBF8C01809126049091270482304B
:10465000910509F47CC2D0F4009709F466C0019773
:1046600009F436C22E960FB6F894DEBF0FBECDBF4A
:10467000DF91CF911F910F91FF90DF90CF90BF906E
:10468000AF909F908F907F906F90089583309105A9
:1046900009F48AC2049731F7F801E75BFF4F0190F4
:1046A000F081E02DC801099590910301811159C352
:1046B000F92EC8018B5A9F4F6C01D801A95ABF4FE0
:1046C0005D01B9E0FB12F7C2109227041092260494
:1046D0005CE1852E51E0952EF12CF801E55AFF4F53
:1046E0003F01D601ED91FC916F2DC8010995D501CF
:1046F000ED91FC9121E030E0882309F4D1C241E042
:104700006F2DC8010995D301ED91FC9121E030E0B6
:10471000D4014C916F2DC8010995F394BFEF8B1A0A
:104720009B0AE7E0FE12DDCFBBC180910001833020
:1047300009F49DC0B0F5813009F454C0823009F00D
:1047400091CF82E090E0909327048093260481E04B
:104750008093030183E090E09093F8048093F70442
:10476000F801EF58FF4F0190F081E02DC801099545
:10477000D82EF801E359FF4F0190F081E02DC801D8
:104780000995F82EF801E759FF4F0190F081E02DCF
:10479000C80109950FEF2D2D4F2D682F88E593E067
:1047A0004FC0853009F457C108F48FC0863009F036
:1047B00059CF10922504109224042E960FB6F89427
:1047C000DEBF0FBECDBFDF91CF911F910F91FF9044
:1047D000DF90CF90BF90AF909F908F907F906F9021
:1047E0000C94B91D21E030E0309327042093260477
:1047F0008093030183E090E09093F8048093F704A2
:10480000F801EB59FF4F0190F081E02DC8010995A7
:10481000D82EF801EF59FF4F0190F081E02DC8012B
:104820000995F82EF801E35AFF4F0190F081E02D31
:10483000C80109950FEF2D2D4F2D682F8DE493E0C2
:104840000E9451192E960FB6F894DEBF0FBECDBF51
:10485000DF91CF911F910F91FF90DF90CF90BF908C
:10486000AF909F908F907F906F900C94081883E08A
:1048700090E0909327048093260421E02093030185
:104880009093F8048093F704F801E75BFF4F0190E1
:10489000F081E02DC8010995D82EF801E758FF4FA7
:1048A0000190F081E02DC8010995F82EF801EB5830
:1048B000FF4F0190F081E02DC80109950D2D20E0FA
:1048C0004F2D682F80E693E0BBCF84E090E090937B
:1048D00027048093260481E0809303018EE0EAE0C0
:1048E000F1E0DE01119601900D928A95E1F78AE6DA
:1048F00093E00E94D216CE0101966C01E0E5AE2E47
:10490000B12CF12C480195E5890E911CD6014D91F1
:104910005D916D0122E0B5018DE290E00E94E0130F
:104920008091FD049091FE04DC015196ED91FC9183
:10493000A5016BE370E00995D401ED91FC916F2D19
:10494000C801099581110DC08091FD049091FE046C
:10495000DC015596ED91FC914FEF5FEF6FEF7FEF2C
:1049600009958091FD049091FE04DC015B96ED9128
:10497000FC9168E509958091FD049091FE04DC01AD
:104980005596ED91FC914FEF5FEF70E060E0099577
:10499000F394B8E2AB0EB11CE5E0FE12B7CF5E01B6
:1049A000FBE0AF0EB11C70E5C72ED12CD5014D91A7
:1049B0005D915D0122E0B60180E291E00E94E0138A
:1049C0008091FD049091FE04DC015196ED91FC91E3
:1049D000A6016EE271E00995D401ED91FC916F2D75
:1049E000C801099581110DC08091FD049091FE04CC
:1049F000DC015596ED91FC914FEF5FEF6FEF7FEF8C
:104A000009958091FD049091FE04DC015B96ED9187
:104A1000FC9168E509958091FD049091FE04DC010C
:104A20005596ED91FC914FEF5FEF70E060E00995D6
:104A3000B8E2CB0ED11CF394E0EACE16D10409F013
:104A4000B5CF22E045EC51E068E171E082E791E00A
:104A50000E94E013F7CEF801E757FF4F0190F08175
:104A6000E02DC80109958091FD049091FE04DC01C0
:104A70001F96ED91FC916FEF7FEF099522E048E7DB
:104A800053E066E970E086E790E00E94E013BFEF34
:104A9000EDE3F9E4B150E040F040E1F700C0000080
:104AA000D8018D919C912E960FB6F894DEBF0FBE63
:104AB000CDBFDF91CF911F910F91FF90DF90CF90ED
:104AC000BF90AF909F908F907F906F900C947C1DC3
:104AD0008091F7049091F804069709F0C3CDF8018E
:104AE000E15AFF4FC080D18032970190F081E02DD4
:104AF000C801099541E050E0682FC801F601099509
:104B0000F801ED59FF4FC080D18032970190F081BC
:104B1000E02DC801099541E050E0682FC801F60179
:104B20000995F801E959FF4FC080D1803297019073
:104B3000F081E02DC801099541E050E0682FC801DF
:104B4000F60109951092270410922604A9CF8091AE
:104B5000F7049091F804069709F084CDF801E5591F
:104B6000FF4FC080D18032970190F081E02DC801C5
:104B7000099541E050E0682FC801F6010995F80158
:104B8000E159FF4FC080D18032970190F081E02D34
:104B9000C801099541E050E0682FC801F601099568
:104BA000F801ED58FF4FC0CF8091F7049091F804C1
:104BB000069709F057CDF801E958FF4FC080D18022
:104BC00032970190F081E02DC801099541E050E055
:104BD000682FC801F6010995F801E558FF4FC0801C
:104BE000D18032970190F081E02DC801099541E014
:104BF00050E0682FC801F6010995F801E55BFF4F09
:104C0000A080B1806801F9E4CF0ED11CD601ED91EE
:104C1000FC91C801099541E050E0682FC801F501F9
:104C20000995D601ED91FC91C8010995882381F180
:104C3000F801E95BFF4F0190F081E02D41E050E089
:104C400061E0C80109956CE1C62E61E0D62EF12C19
:104C50004801B7E58B0E911C5801EBE5AE0EB11C77
:104C6000D401ED91FC9121E030E041E06F2DC801CD
:104C70000995F60141916F01D501ED91FC9121E07B
:104C800030E06F2DC8010995F394B7E0FB12E8CF2F
:104C90001092270410922604F8018081918103CF9D
:104CA00040E06F2DC8010995D301ED91FC9121E001
:104CB00030E04FE52FCDEFEFEF0DE83070F4F0E08E
:104CC000EC59F94D0C94DC346C269D26A026A326C5
:104CD000A6266D26A926AC26F12CF501A080B18070
:104CE000D601ED91FC916F2DC801099541E048274F
:104CF00030E020E06F2DC801F5010995D601ED9156
:104D0000FC916F2DC80109956F2D882341F181E039
:104D10002E960FB6F894DEBF0FBECDBFDF91CF91B8
:104D20001F910F91FF90DF90CF90BF90AF909F9019
:104D30008F907F906F900C94BC18FF24F394CDCF8C
:104D400042E0F42ECACF33E0F32EC7CF24E0F22E98
:104D5000C4CF95E0F92EC1CF86E0F82EBECF80E01B
:104D6000D7CF993009F07ECC93CFCF92DF92EF92DC
:104D7000FF921F93CF93DF93EC01809126049091D3
:104D800027048230910509F464C08330910509F449
:104D9000AFC0019709F019C18091F7049091F80410
:104DA0008430910551F185309105E9F1039709F0BF
:104DB0000CC1FE01E35AFF4F0190F081E02DCE01BE
:104DC0000995282F30E040E550E067E170E090E081
:104DD00080E00E94F91FFE01E15AFF4F0190F0812F
:104DE000E02D50E040E0682FCE01DF91CF911F9180
:104DF000FF90EF90DF90CF900994FE01EF59FF4FA5
:104E00000190F081E02DCE010995282F30E048E790
:104E100050E06BE370E090E080E00E94F91FFE013B
:104E2000ED59FF4FDBCFFE01EB59FF4F0190F081B1
:104E3000E02DCE010995282F30E040EA50E06BE3E9
:104E400070E090E080E00E94F91FFE01E959FF4FF9
:104E5000C5CF8091F7049091F80484309105E1F07A
:104E60008530910579F1039709F0AFC0FE01E7594C
:104E7000FF4F0190F081E02DCE010995282F30E001
:104E800040E550E067E170E090E080E00E94F91FAB
:104E9000FE01E559FF4FA2CFFE01E359FF4F0190FC
:104EA000F081E02DCE010995282F30E048E750E051
:104EB0006BE370E090E080E00E94F91FFE01E15991
:104EC000FF4F8CCFFE01EF58FF4F0190F081E02D96
:104ED000CE010995282F30E040EA50E06BE370E006
:104EE00090E080E00E94F91FFE01ED58FF4F76CF61
:104EF0008091F7049091F80484309105E1F08530B9
:104F0000910579F1039709F060C0FE01EB58FF4F5E
:104F10000190F081E02DCE010995282F30E040E589
:104F200050E067E170E090E080E00E94F91FFE0130
:104F3000E958FF4F53CFFE01E758FF4F0190F08132
:104F4000E02DCE010995282F30E048E750E06BE3D3
:104F500070E090E080E00E94F91FFE01E558FF4FED
:104F60003DCF2FEF81EE94E0215080409040E1F75B
:104F700000C000007E01A9E4EA0EF11CD701ED910A
:104F8000FC91CE01099511E08127E82FF0E0EE0FAA
:104F9000FF1FE85EFE4F4081518122E060EA70E031
:104FA0008DE990E00E94E013FE01E55BFF4FC080B9
:104FB000D180D701ED91FC91CE010995682F612731
:104FC00050E040E0CE01F60110CFDF91CF911F916C
:104FD000FF90EF90DF90CF9008958091F50490912D
:104FE000F604DC011F96ED91FC9109958823D9F018
:104FF0008EE10E941D1C80910101909102018D7F24
:10500000892BE9F48091AA049091AB048230910538
:1050100009F44FC08330910509F4A7C0019709F046
:10502000B9C00C94801C8091F5049091F604DC01C9
:105030001D96ED91FC9109958111DACF089510929A
:1050400002011092010181E090E09093AB04809303
:10505000AA048EE10E941D1C8091F9049091FA042B
:10506000FC01EF5AFF4F0190F081E02D099581116D
:1050700006C08091F9049091FA040E94471F809124
:10508000FB049091FC04FC01EF5AFF4F0190F0816A
:10509000E02D0995811106C08091FB049091FC04DC
:1050A0000E94471F0E94DB1981E0809303010C944A
:1050B00008188091F7049091F8048230910541F12D
:1050C00028F4009749F00197A9F0089583309105DD
:1050D00081F10497E1F108952091A30430E040E5C7
:1050E00050E06FE170E081E090E00E94F91F809352
:1050F000A30408952091A40430E048E750E06CE058
:1051000070E081E090E00E94F91F8093A40408956C
:105110002091A5043091A60440EA50E062E078E0D6
:1051200086EE97E00E94F91F9093A6048093A50451
:1051300008952091A20430E048EC50E067E170E06F
:1051400090E080E00E94F91F8093A20408952091CE
:10515000A10430E040EF50E06BE370E090E080E0CD
:105160000E94F91F8093A1040895809124049091D6
:1051700025048130910519F0029739F00895809146
:105180009C0490919D040C94B52680919A04909172
:105190009B04F9CF08950F93CF93DF93EC016883BD
:1051A00049830A832B8382E090E00E94E2340097D7
:1051B000A1F02CE530E2FC013183208320917C00BA
:1051C000206420937C0020917C002F7720937C002A
:1051D00020917A00276020937A0090938E04809328
:1051E0008D042A818B818830B1F08B3019F18530A4
:1051F00071F434B181E090E001C0880F2A95EAF79C
:10520000982F9095932394B995B1892B85B9DF9107
:10521000CF910F91089537B181E090E001C0880FE0
:105220002A95EAF7982F9095932397B998B1892BEF
:1052300088B9EDCF3AB181E090E001C0880F2A959E
:10524000EAF7982F909593239AB99BB1892B8BB944
:10525000DECFBF92CF92DF92EF92FF920F931F9318
:10526000CF93DF93EC011F8A188E198E1A8E1B8E36
:105270001C8E1D8E1E8E1D821E821F827C0189E067
:10528000E80EF11C8E016E01EEE0CE0ED11C8FE512
:10529000B82EF70111927F01B682F80182A560E075
:1052A00090E00E948C34F80183A5F701668190E0BC
:1052B0000E948C340E5F1F4F0C151D0551F78AA1FB
:1052C00060E090E00E948C348BA160E090E00E944E
:1052D0008C348CA160E090E00E948C348DA160E061
:1052E00090E00E948C348EA160E090E00E948C34AB
:1052F0008FA160E090E00E948C3488A560E090E08F
:105300000E948C3489A560E090E00E948C3488ADC6
:1053100060E090E00E948C3489AD60E090E0DF9125
:10532000CF911F910F91FF90EF90DF90CF90BF90A2
:105330000C948C34FC01668F452B21F081A590E004
:105340000C948C340895FC01658F452B21F080A5C9
:1053500090E00C948C340895FC01648F452B21F06F
:1053600087A190E00C948C340895FC01638F452B49
:1053700021F086A190E00C948C340895FC01628F9A
:10538000452B21F085A190E00C948C340895FC010C
:10539000618F452B21F084A190E00C948C3408950A
:1053A000FC01608F452B21F083A190E00C948C349C
:1053B0000895FC01678B452B21F082A190E00C94AD
:1053C0008C340895E62FF0E0DC01AE0FBF1F50963D
:1053D0004C93232B49F0EE0FFF1FE80FF91F83A515
:1053E000642F90E00C948C340895E62FF0E0DC01FB
:1053F000AE0FBF1F19964C93232B51F07596EE0FED
:10540000FF1FE80FF91F8081642F90E00C948C340B
:105410000895FC016683452B21F081AD90E00C944A
:105420008C340895FC016583452B21F080AD90E01C
:105430000C948C340895EF92FF920F931F93CF93A7
:10544000DF93EC01798368832C830B834A832830B4
:1054500009F483C02B3009F48AC0253049F484B1A3
:1054600021E030E001C0220F0A95EAF7822B84B9CF
:1054700041E06B818C810E949D0C8A81813009F40E
:1054800080C0823009F4AFC08AAD90E00E948434BD
:10549000843609F0D7C088AD90E00E94843491E052
:1054A000811101C090E09D8389AD90E00E94843419
:1054B00091E0811101C090E09E831F8218868AA12D
:1054C00090E00E9484348F8B8BA190E00E94843402
:1054D000888F8CA190E00E948434898F8DA190E008
:1054E0000E9484348A8F8EA190E00E9484348B8F36
:1054F0008FA190E00E9484348C8F88A590E00E9458
:1055000084348D8F89A590E00E9484348E8F1F8E05
:1055100018A219A28E01075F1F4F7E018EE0E80ED0
:10552000F11C8AA590E00E94843491E0811101C0B1
:1055300090E0F80191938F018BA590E00E94843454
:10554000F80186832296EC16FD0659F7DF91CF917C
:105550001F910F91FF90EF90089587B121E030E007
:1055600001C0220F0A95EAF7822B87B981CF8AB151
:1055700021E030E001C0220F0A95EAF7822B8AB9B8
:1055800077CF8AA383E08BA385E08CA387E08DA3EC
:1055900089E08EA38BE08FA38DE088A78FE089A799
:1055A00081E18AA783E18CA785E18EA787E188AB9B
:1055B00089E18AAB8BE18CAB8DE18EAB8FE18BA760
:1055C00081E28DA783E28FA785E289AB87E28BAB6F
:1055D00089E28DAB8BE28FAB8DE288AF8FE289AF32
:1055E0008FEF8AAF51CF8AA384E08BA386E08CA390
:1055F00088E08DA38AE08EA38CE08FA38EE088A73D
:1056000080E189A782E18AA784E18CA786E18EA741
:1056100088E188AB8AE18AAB8CE18CAB8EE18EAB02
:1056200080E28BA782E28DA784E28FA786E289AB16
:1056300088E28BAB8AE28DAB8CE28FAB8EE288AFD7
:1056400080E3CDCFCE010E94292918868AAD64E679
:1056500090E0DF91CF911F910F91FF90EF900C940C
:105660008C34EF92FF920F931F93CF93DF93EC0153
:105670008C010B5B1F4FD801ED91FC910995F82E21
:1056800088AD90E00E94843490E0F8161906B1F0DD
:10569000FE01E95BFF4FE080F180D801ED91FC91C4
:1056A000CE01099541E050E0682FCE01F701DF916E
:1056B000CF911F910F91FF90EF900994DF91CF91BF
:1056C0001F910F91FF90EF900895CF92DF92EF928C
:1056D000FF920F931F93CF93DF93CDB7DEB72A9737
:1056E0000FB6F894DEBF0FBECDBF8091F504909148
:1056F000F604DC015596ED91FC910995811127C0C6
:10570000BFEFE1EEF4E0B150E040F040E1F700C05F
:1057100000008091F5049091F604DC015596ED911E
:10572000FC9109958823A9F38EE10E941D1C8091AC
:10573000AA049091AB048330910509F482C1B0F4BE
:105740008130910509F442C0029709F449C12A96B3
:105750000FB6F894DEBF0FBECDBFDF91CF911F9182
:105760000F91FF90EF90DF90CF90089584309105D6
:1057700009F4BCC1059759F710910001123009F4E2
:105780002BC2133009F448C2113009F780919C04F0
:1057900090919D04FC01E95BFF4FE080F18032971E
:1057A0000190F081E02D0995682F612750E040E0DD
:1057B00080919C0490919D04F701099580919C042F
:1057C00090919D04FC01EB5BFF4FB7C180910001FC
:1057D000823009F4D9C008F0CFC0813009F0B7CFCA
:1057E00082E090E09093AB048093AA04E0919E0441
:1057F000F0919F040084F185E02DCE01019609957A
:105800008AE0FE013196A0EAB4E001900D928A95FB
:10581000E1F71091A1040091A204C090A304D090DC
:10582000A404E090A504F090A60489ED93E00E9402
:10583000D2168091FD049091FE04DC015596ED9105
:10584000FC914FEF5FEF70E060E0099522E045EEDC
:1058500053E060E570E08DE290E00E94E0138C2D53
:1058600090E00E94A2138091FD049091FE04DC015F
:105870005D96ED91FC9162E072E0099522E042EFC5
:1058800053E068E770E08DE290E00E94E0138D2D18
:1058900090E00E94A2138091FD049091FE04DC012F
:1058A0005D96ED91FC9162E072E0099522E04FEF88
:1058B00053E060EA70E08DE290E00E94E013C701DF
:1058C0000E94A2138091FD049091FE04DC015D967C
:1058D000ED91FC9162E072E0099522E04AEC51E022
:1058E00068EC70E08DE290E00E94E013802F90E081
:1058F0000E94A2138091FD049091FE04DC015D964C
:10590000ED91FC9162E072E0099522E047ED51E0F3
:1059100060EF70E08DE290E00E94E0131C3309F428
:1059200010E0812F90E00E94A2138091FD049091DD
:10593000FE04DC015D96ED91FC9162E072E0099558
:1059400022E045EC51E068E171E082E791E00E94DD
:10595000E01381E0809303012A960FB6F894DEBF2E
:105960000FBECDBFDF91CF911F910F91FF90EF90B0
:10597000DF90CF900C9408188330E1F0843009F068
:10598000E6CE85E090E018C083E090E09093AB0411
:105990008093AA042A960FB6F894DEBF0FBECDBF3F
:1059A000DF91CF911F910F91FF90EF90DF90CF90FB
:1059B0000C94B91D84E090E09093AB048093AA040A
:1059C0002A960FB6F894DEBF0FBECDBFDF91CF9100
:1059D0001F910F91FF90EF90DF90CF900C94F71DE7
:1059E0008091F7049091F804069709F0B0CE4091A9
:1059F000A5045091A604E0919E04F0919F040480B8
:105A0000F581E02D6091A4048091A3040995E091B3
:105A10009E04F0919F040280F381E02D40E06091AC
:105A2000A1048091A204099581E090E09093AB04D9
:105A30008093AA041092F8041092F7040E94DB19D4
:105A400088CF809124049091250481309105D1F173
:105A500040F0029709F07BCE80919A0490919B04CC
:105A600035C080910001823011F1833009F4ADC05E
:105A7000813009F06CCE81E090E090932504809312
:105A80002404E0919C04F0919D04808191812A96E8
:105A90000FB6F894DEBF0FBECDBFDF91CF911F913F
:105AA0000F91FF90EF90DF90CF900C947C1D82E0DF
:105AB00090E09093250480932404E0919A04F0915F
:105AC0009B04E3CF80919C0490919D042A960FB68D
:105AD000F894DEBF0FBECDBFDF91CF911F910F9124
